{
  "contractName": "TweetStorage",
  "abi": [
    {
      "constant": true,
      "inputs": [
        {
          "name": "",
          "type": "uint256"
        }
      ],
      "name": "tweets",
      "outputs": [
        {
          "name": "id",
          "type": "uint256"
        },
        {
          "name": "text",
          "type": "string"
        },
        {
          "name": "userId",
          "type": "uint256"
        },
        {
          "name": "postedAt",
          "type": "uint256"
        }
      ],
      "payable": false,
      "stateMutability": "view",
      "type": "function"
    },
    {
      "constant": false,
      "inputs": [
        {
          "name": "_userId",
          "type": "uint256"
        },
        {
          "name": "_text",
          "type": "string"
        }
      ],
      "name": "createTweet",
      "outputs": [
        {
          "name": "",
          "type": "uint256"
        }
      ],
      "payable": false,
      "stateMutability": "nonpayable",
      "type": "function"
    }
  ],
  "bytecode": "0x608060405234801561001057600080fd5b50610423806100206000396000f3fe608060405234801561001057600080fd5b5060043610610053576000357c0100000000000000000000000000000000000000000000000000000000900480637cc82f2014610058578063e8d857b014610131575b600080fd5b61011b6004803603604081101561006e57600080fd5b81019080803590602001909291908035906020019064010000000081111561009557600080fd5b8201836020820111156100a757600080fd5b803590602001918460018302840111640100000000831117156100c957600080fd5b91908080601f016020809104026020016040519081016040528093929190818152602001838380828437600081840152601f19601f8201169050808301925050505050505091929192905050506101ed565b6040518082815260200191505060405180910390f35b61015d6004803603602081101561014757600080fd5b8101908080359060200190929190505050610281565b6040518085815260200180602001848152602001838152602001828103825285818151815260200191508051906020019080838360005b838110156101af578082015181840152602081019050610194565b50505050905090810190601f1680156101dc5780820380516001836020036101000a031916815260200191505b509550505050505060405180910390f35b60006001600081548092919060010191905055506040518060800160405280600154815260200183815260200184815260200142815250600080600154815260200190815260200160002060008201518160000155602082015181600101908051906020019061025e929190610349565b506040820151816002015560608201518160030155905050600154905092915050565b6000602052806000526040600020600091509050806000015490806001018054600181600116156101000203166002900480601f0160208091040260200160405190810160405280929190818152602001828054600181600116156101000203166002900480156103335780601f1061030857610100808354040283529160200191610333565b820191906000526020600020905b81548152906001019060200180831161031657829003601f168201915b5050505050908060020154908060030154905084565b828054600181600116156101000203166002900490600052602060002090601f016020900481019282601f1061038a57805160ff19168380011785556103b8565b828001600101855582156103b8579182015b828111156103b757825182559160200191906001019061039c565b5b5090506103c591906103c9565b5090565b6103eb91905b808211156103e75760008160009055506001016103cf565b5090565b9056fea265627a7a7230582030010f43696b864fc1b74b41028a3ca042bc39f8f1beebcc8f57f3311179510764736f6c634300050a0032",
  "source": "pragma solidity ^0.5.10;\r\n\r\ncontract TweetStorage {\r\n\r\n    mapping (uint => Tweet) public tweets;\r\n\r\n    struct Tweet {\r\n        uint id;\r\n        string text;\r\n        uint userId;\r\n        uint postedAt;\r\n    }\r\n\r\n    uint latestTweetId;\r\n\r\n    function createTweet(uint _userId, string memory _text) public returns(uint) {\r\n\r\n        latestTweetId++;\r\n\r\n        tweets[latestTweetId] = Tweet(latestTweetId, _text, _userId, now);\r\n\r\n        return latestTweetId;\r\n    }\r\n\r\n}",
  "sourcePath": "D:\\projects\\eth-twitter\\contracts\\tweets\\TweetStorage.sol",
  "compiler": {
    "name": "solc",
    "version": "0.5.10+commit.5a6ea5b1.Emscripten.clang"
  },
  "schemaVersion": "3.0.23",
  "updatedAt": "2021-01-27T21:11:59.150Z",
  "networkType": "ethereum",
  "devdoc": {
    "methods": {}
  },
  "userdoc": {
    "methods": {}
  }
}