{
  "contractName": "UserStorage",
  "abi": [
    {
      "constant": false,
      "inputs": [
        {
          "name": "_userName",
          "type": "bytes32"
        }
      ],
      "name": "createUser",
      "outputs": [
        {
          "name": "",
          "type": "uint256"
        }
      ],
      "payable": false,
      "stateMutability": "nonpayable",
      "type": "function"
    }
  ],
  "bytecode": "0x6080604052600060015534801561001557600080fd5b5061011e806100256000396000f3fe6080604052348015600f57600080fd5b50600436106045576000357c010000000000000000000000000000000000000000000000000000000090048063abf7bfd814604a575b600080fd5b607360048036036020811015605e57600080fd5b81019080803590602001909291905050506089565b6040518082815260200191505060405180910390f35b6000600160008154809291906001019190505550604051806040016040528060015481526020018381525060008060015481526020019081526020016000206000820151816000015560208201518160010155905050600154905091905056fea265627a7a72305820cb1542a3cf1163ceebe7bf434f967385a93a6e627c10be3bb0747fe9c19c456664736f6c634300050a0032",
  "source": "pragma solidity ^0.5.10;\r\n\r\ncontract UserStorage {\r\n\r\n    mapping(uint => Profile) profiles;\r\n\r\n    struct Profile {\r\n        uint id;\r\n        bytes32 username;\r\n    }\r\n\r\n    uint latestUserId = 0;\r\n\r\n    function createUser(bytes32 _userName) public returns(uint){\r\n        latestUserId++;\r\n\r\n        profiles[latestUserId] = Profile(latestUserId, _userName);\r\n\r\n        return latestUserId;\r\n    }\r\n\r\n}",
  "sourcePath": "D:\\projects\\eth-twitter\\contracts\\users\\UserStorage.sol",
  "compiler": {
    "name": "solc",
    "version": "0.5.10+commit.5a6ea5b1.Emscripten.clang"
  },
  "schemaVersion": "3.0.23",
  "updatedAt": "2021-01-27T05:03:03.170Z",
  "networkType": "ethereum",
  "devdoc": {
    "methods": {}
  },
  "userdoc": {
    "methods": {}
  }
}